:020000040000FA
:060000000A128A110C280F
:10000800FE00030EF7000A08F8000A128A11FD29FB
:100018000A128A110F280A128A114B220A128A110F
:10002800FA00B101F90183010A128A111B2883120F
:100038000313AA01AB01AC01AD01AE01AF01A601EA
:10004800A7010A128A1130220A128A118B170A1282
:100058008A11F6200A128A118316031709128030B2
:1000680083120313A400240883160313860583123E
:10007800031386017030A400240883160313850532
:100088008316031788118312031385018312031340
:100098003108A4002408B0003008D03EA800FF3082
:1000A80003180030A9002A30300603195C285D289F
:1000B800632823303006031D622863286C28AA01B0
:1000C800AB01AC01AD01AE01AF01A601A7019228B9
:1000D800A91B6F28702892282908803AFF008030D1
:1000E8007F02031D79280A30280203187C287D28FE
:1000F8009228831203132F08A7002E08A6002D08A4
:10010800AF002C08AE002B08AD002A08AC00300860
:10011800D03EAA00FF3003180030AB00831203134F
:10012800051085152B08A3002A08A2000A128A11B7
:100138003E220A128A11413083120313A500ED30C2
:10014800A400A40BA528A50BA528AA28831203138D
:10015800851105152D08A3002C08A2000A128A1182
:100168003E220A128A11413083120313A500ED3092
:10017800A400A40BBD28A50BBD28C2288312031315
:10018800051185142F08A3002E08A2000A128A114F
:100198003E220A128A11413083120313A500ED3062
:1001A800A400A40BD528A50BD528DA28831203139D
:1001B800851005142708A3002608A2000A128A1130
:1001C8003E220A128A11413083120313A500ED3032
:1001D800A400A40BED28A50BED28F2284A280A1242
:1001E8008A110C28313083120313A3002308A000BE
:1001F8003E300A128A1187210A128A11323083127C
:100208000313A3002308A0005E300A128A11872175
:100218000A128A11333083120313A3002308A000A3
:100228006E300A128A1187210A128A113430831219
:100238000313A3002308A0003D300A128A11872166
:100248000A128A11353083120313A3002308A00071
:100258005D300A128A1187210A128A1136308312F8
:100268000313A3002308A0006D300A128A11872106
:100278000A128A11373083120313A3002308A0003F
:100288003B300A128A1187210A128A1138308312E8
:100298000313A3002308A0005B300A128A118721E8
:1002A8000A128A11393083120313A3002308A0000D
:1002B8006B300A128A1187210A128A112A30831296
:1002C8000313A3002308A00037300A128A118721DC
:1002D8000A128A11303083120313A3002308A000E6
:1002E80057300A128A1187210A128A112330831281
:1002F8000313A3002308A00067300A128A1187217C
:100308000A128A11080083120313A2008316031726
:100318008C188F2990298A298312031322088312A3
:1003280003178D00831203132008831203178C0010
:100338003F3083120313A1002108831603178C058D
:100348008312031303108B1FAA29AB29AC290314AA
:100358008B13831603170C1555308D00AA308D00AA
:100368008C140C1183120313031CBB29BC29BD294F
:100378008B170800F03083160313870083120313CA
:100388000708F2007208F3008F3083160313870002
:10039800831203130708F2007208F4007308740448
:1003A800F2007208F50075080A128A1119220A1259
:1003B8008A11080083120313A1006400831603172F
:1003C8008C18E729EA2983120313E12983120313FE
:1003D8002108831203178D003F3083120313A000F6
:1003E8002008831603178C050C14831203170C08B6
:1003F80008008B1E002A012A122A0B1D042A052A2E
:10040800122A0A128A11BE210A128A11F6007608E7
:1004180083120313B1003B3081000B1178088A0066
:10042800770E8300FE0E7E0E0900F100640083162D
:1004380003178C18202A212A1A2A710883120317F5
:100448008D003F30F0007008831603178C050C14DC
:10045800831203170C0808008316031381128111F5
:1004680081128111073081043B308312031381000C
:100478008B160800831203132208013E0A128A1100
:10048800DE210A128A118312031386000800013440
:04400E00F3EFFFFFCE
:10420000FF007E0030006D00790033005B005F002E
:1042100070007F007300FF00FF00FF00FF00FF0041
:00000001FF
